:1000000000000410359400106521001067210010D5
:10001000692100106B2100106D210010000000000C
:100020000000000000000000000000006F21001030
:1000300071210010000000007321001075210010D4
:10004000A10D0010A10D0010A10D0010A10D0010B8
:10005000A10D0010A10D0010A10D0010A10D0010A8
:10006000A10D0010A10D0010A10D0010A10D001098
:10007000A10D0010A10D0010A10D0010A10D001088
:10008000A10D0010A10D0010A10D0010A10D001078
:10009000A10D0010A10D0010A10D0010A10D001068
:1000A000A10D0010A10D0010A10D0010A10D001058
:1000B000A10D0010A10D0010A10D0010A10D001048
:1000C000A10D0010A10D0010A10D0010A10D001038
:1000D000A10D0010A10D0010A10D0010A10D001028
:1000E000A10D0010A10D0010A10D0010A10D001018
:1000F000A10D0010A10D0010A10D0010A10D001008
:10010000A10D0010A10D0010A10D0010A10D0010F7
:10011000A10D0010A10D0010A10D0010A10D0010E7
:10012000A10D0010A10D0010A10D0010A10D0010D7
:10013000A10D0010A10D0010A10D0010A10D0010C7
:10014000A10D0010A10D0010A10D0010A10D0010B7
:10015000A10D0010A10D0010A10D0010A10D0010A7
:10016000A10D0010A10D0010A10D0010A10D001097
:10017000A10D0010A10D0010A10D0010A10D001087
:10018000A10D0010A10D0010A10D0010A10D001077
:10019000A10D0010A10D0010A10D0010A10D001067
:1001A000A10D0010A10D0010A10D0010A10D001057
:1001B000A10D0010A10D0010A10D0010A10D001047
:1001C000A10D0010A10D0010A10D0010A10D001037
:1001D000A10D0010A10D0010A10D00107D21001037
:1001E000A10D0010A10D0010A10D0010A10D001017
:1001F000A10D0010A10D0010A10D0010A10D001007
:10020000A10D0010A10D0010A10D0010A10D0010F6
:10021000A10D0010A10D0010A10D0010A10D0010E6
:10022000A10D0010A10D0010A10D0010A10D0010D6
:10023000A10D0010A10D0010A10D0010A10D0010C6
:10024000A10D0010A10D0010A10D0010A10D0010B6
:10025000A10D0010A10D0010A10D0010A10D0010A6
:10026000A10D0010A10D0010A10D0010A10D001096
:10027000A10D0010A10D0010A10D0010A10D001086
:10028000A10D0010A10D0010A10D0010A10D001076
:08029000A10D0010A10D0010EA
:020000041000EA
:1000000010B5054C237833B9044B13B10448AFF352
:1000100000800123237010BD1003021000000000B7
:100020001C94001008B5034B1BB103490348AFF300
:10003000008008BD00000000140302101C94001092
:1000400081F0004102E000BF83F0004330B54FEA89
:1000500041044FEA430594EA050F08BF90EA020FF6
:100060001FBF54EA000C55EA020C7FEA645C7FEA89
:10007000655C00F0E2804FEA5454D4EB5555B8BFAC
:100080006D420CDD2C4480EA020281EA030382EA1D
:10009000000083EA010180EA020281EA0303362DAF
:1000A00088BF30BD11F0004F4FEA01314FF4801C82
:1000B0004CEA113102D0404261EB410113F0004F94
:1000C0004FEA03334CEA133302D0524263EB43034B
:1000D00094EA050F00F0A780A4F10104D5F1200EE9
:1000E0000DDB02FA0EFC22FA05F2801841F1000144
:1000F00003FA0EF2801843FA05F359410EE0A5F118
:1001000020050EF1200E012A03FA0EFC28BF4CF048
:10011000020C43FA05F3C01851EBE37101F00045FE
:1001200007D54FF0000EDCF1000C7EEB00006EEB0B
:100130000101B1F5801F1BD3B1F5001F0CD3490895
:100140005FEA30004FEA3C0C04F101044FEA4452EC
:1001500012F5800F80F09A80BCF1004F08BF5FEA73
:10016000500C50F1000041EB045141EA050130BD53
:100170005FEA4C0C404141EB010111F4801FA4F1F6
:100180000104E9D191F0000F04BF01460020B1FA4B
:1001900081F308BF2033A3F10B03B3F120020CDA83
:1001A0000C3208DD02F1140CC2F10C0201FA0CF061
:1001B00021FA02F10CE002F11402D8BFC2F1200CC6
:1001C00001FA02F120FA0CFCDCBF41EA0C0190407C
:1001D000E41AA2BF01EB0451294330BD6FEA0404C5
:1001E0001F3C1CDA0C340EDC04F11404C4F12002B0
:1001F00020FA04F001FA02F340EA030021FA04F3C2
:1002000045EA030130BDC4F10C04C4F1200220FA18
:1002100002F001FA04F340EA0300294630BD21FA56
:1002200004F0294630BD94F0000F83F4801306BF1C
:1002300081F480110134013D4EE77FEA645C18BF10
:100240007FEA655C29D094EA050F08BF90EA020FA7
:1002500005D054EA000C04BF1946104630BD91EA9F
:10026000030F1EBF0021002030BD5FEA545C05D1A2
:100270004000494128BF41F0004130BD14F58004E1
:100280003CBF01F5801130BD01F0004545F0FE4155
:1002900041F470014FF0000030BD7FEA645C1ABF8A
:1002A000194610467FEA655C1CBF0B46024650EAC1
:1002B000013406BF52EA033591EA030F41F40021ED
:1002C00030BD00BF90F0000F04BF0021704730B573
:1002D0004FF4806404F132044FF000054FF0000148
:1002E00050E700BF90F0000F04BF0021704730B509
:1002F0004FF4806404F1320410F0004548BF4042DE
:100300004FF000013EE700BF42004FEAE2014FEA32
:1003100031014FEA02701FBF12F07F4393F07F4F0D
:1003200081F06051704732F07F4208BF704793F010
:100330007F4F04BF41F40021704730B54FF4607423
:1003400001F0004521F000411CE700BF50EA010226
:1003500008BF704730B54FF000050AE050EA0102CF
:1003600008BF704730B511F0004502D5404261EB3F
:1003700041014FF4806404F132045FEA915C3FF480
:10038000D8AE4FF003025FEADC0C18BF03325FEA1D
:10039000DC0C18BF033202EBDC02C2F1200300FACE
:1003A00003FC20FA02F001FA03FE40EA0E0021FAF3
:1003B00002F11444BDE600BF7BB972B90029BEBF8B
:1003C00000204FF0004106E008BF00281CBF6FF07E
:1003D00000414FF0FF3000F0A5B9ADF1080C6DE918
:1003E00004CE002909DB002B1ADB00F035F8DDF81C
:1003F00004E0DDE9022304B07047404261EB4101B3
:10040000002B1BDB00F028F8DDF804E0DDE9022317
:1004100004B0404261EB4101524263EB4303704739
:10042000524263EB430300F017F8DDF804E0DDE926
:10043000022304B0404261EB41017047524263EB3A
:10044000430300F009F8DDF804E0DDE9022304B01D
:10045000524263EB430370472DE9F047089E044680
:100460008846002B4BD18A42154667D9B2FA82F2F0
:100470004AB1C2F1200701FA02F320FA07F79540CA
:1004800047EA030894404FEA154E230CB8FBFEF7E9
:100490001FFA85FC0EFB178843EA084307FB0CF1A3
:1004A000994209D9EB1807F1FF3080F01B8199427E
:1004B00040F21881023F2B445B1AA4B2B3FBFEF05A
:1004C0000EFB103344EA034400FB0CFCA44509D99D
:1004D0002C1900F1FF3380F00781A44540F204811C
:1004E00002382C4440EA0740A4EB0C0400271EB15C
:1004F000D4400023C6E900433946BDE8F0878B426B
:1005000009D9002E00F0EB800027C6E9000138462B
:100510003946BDE8F087B3FA83F7002F47D18B4205
:1005200002D3824200F2FA80841A61EB03030120B5
:100530009846002EE0D0C6E90048DDE702B9FFDEAC
:10054000B2FA82F2002A40F08F80491B4FEA154E22
:100550001FFA85F80127B1FBFEFC230C0EFB1C11D2
:1005600043EA014308FB0CF1994207D9EB180CF15F
:10057000FF3002D2994200F2CD808446591AA3B2CC
:10058000B1FBFEF00EFB101443EA044408FB00F834
:10059000A04507D92C1900F1FF3302D2A04500F283
:1005A000B6801846A4EB080440EA0C409FE7C7F168
:1005B000200CBB4022FA0CFE4EEA030E01FA07F4AF
:1005C00020FA0CF521FA0CF34FEA1E482543B3FB41
:1005D000F8F92C0C08FB19331FFA8EFA44EA03438E
:1005E00009FB0AF49C4202FA07F200FA07F10BD960
:1005F0001EEB030309F1FF3080F087809C4240F23C
:100600008480A9F1020973441B1BADB2B3FBF8F05F
:1006100008FB103345EA034400FB0AFAA24508D957
:100620001EEB040400F1FF336BD2A24569D90238F6
:10063000744440EA0940A0FB0289A4EB0A044C453B
:10064000C2464B4654D351D0002E69D0B1EB0A05B7
:1006500064EB030404FA0CFCFD40FC404CEA050585
:10066000C6E90054002747E7C2F1200320FA03F748
:10067000954001FA02F021FA03F34FEA154E384390
:10068000010CB3FBFEF71FFA85F80EFB173341EAA6
:10069000034107FB08F38B4204FA02F407D96918F7
:1006A00007F1FF3C2FD28B422DD9023F2944CB1AB0
:1006B00081B2B3FBFEF00EFB103341EA034100FBB5
:1006C00008F38B4207D9691800F1FF3C17D28B421F
:1006D00015D902382944C91A40EA07473BE737468B
:1006E000304609E70746E7E61846FBE64145ABD248
:1006F000B8EB020A69EB0E0201381346A4E7604624
:10070000E9E7184695E76746D1E781467CE7023876
:100710002C4447E7ACF1020C2B442FE7384608E79E
:100720003746E9E6704700BF10F8012B11F8013B8E
:10073000012A28BF9A42F7D0D01A7047034613F80F
:10074000012B002AFBD1181A013870470000000065
:1007500001F0FF01102A2BDB10F0070F08D010F872
:10076000013B013A8B422DD010F0070F42B3F6D176
:10077000F0B441EA012141EA014122F007047FF08F
:1007800000070023F0E80256083C85EA010586EAE6
:10079000010685FA47F5A3FA87F586FA47F6A5FA22
:1007A00087F68EB9EED1F0BC01F0FF0102F007022E
:1007B00032B110F8013B013A83EA010313B1F8D1D9
:1007C0000020704701387047002D06BF35460338BA
:1007D000073815F0010F07D1013015F4807F02BFF3
:1007E000013015F4C03F0130F0BC0138704700BF44
:1007F00070B54FF0FF0C4CF4E06C1CEA11541DBFB7
:100800001CEA135594EA0C0F95EA0C0F00F0DEF881
:100810002C4481EA030621EA4C5123EA4C5350EA66
:10082000013518BF52EA033541F4801143F48013B7
:1008300038D0A0FB02CE4FF00005E1FB02E506F048
:100840000042E0FB03E54FF00006E1FB03569CF09D
:10085000000F18BF4EF0010EA4F1FF04B6F5007FA3
:1008600064F5407404D25FEA4E0E6D4146EB060615
:1008700042EAC62141EA55514FEAC52040EA5E509E
:100880004FEACE2EB4F1FD0C88BFBCF5E06F1ED848
:10089000BEF1004F08BF5FEA500E50F1000041EB7F
:1008A000045170BD06F0004646EA010140EA02002C
:1008B00081EA0301B4EB5C04C2BFD4EB0C0541EA4E
:1008C000045170BD41F480114FF0000E013C00F363
:1008D000AB8014F1360FDEBF002001F0004170BD87
:1008E000C4F10004203C35DA0C341BDC04F11404A0
:1008F000C4F1200500FA05F320FA04F001FA05F22C
:1009000040EA020001F0004221F0004110EBD370F8
:1009100021FA04F642EB06015EEA430E08BF20EA24
:10092000D37070BDC4F10C04C4F1200500FA04F3C7
:1009300020FA05F001FA04F240EA020001F0004159
:1009400010EBD37041F100015EEA430E08BF20EACC
:10095000D37070BDC4F1200500FA05F24EEA020E14
:1009600020FA04F301FA05F243EA020321FA04F043
:1009700001F0004121FA04F220EA020000EBD370FA
:100980005EEA430E08BF20EAD37070BD94F0000FFA
:100990000FD101F00046400041EB010111F4801F2E
:1009A00008BF013CF7D041EA060195F0000F18BFDF
:1009B000704703F00046520043EB030313F4801F1B
:1009C00008BF013DF7D043EA0603704794EA0C0FD5
:1009D0000CEA135518BF95EA0C0F0CD050EA4106EB
:1009E00018BF52EA4306D1D181EA030101F0004168
:1009F0004FF0000070BD50EA410606BF1046194690
:100A000052EA430619D094EA0C0F02D150EA01369B
:100A100013D195EA0C0F05D152EA03361CBF1046DC
:100A200019460AD181EA030101F0004141F0FE417B
:100A300041F470014FF0000070BD41F0FE4141F4FF
:100A4000780170BD70B54FF0FF0C4CF4E06C1CEAFF
:100A500011541DBF1CEA135594EA0C0F95EA0C0FB4
:100A600000F0A7F8A4EB050481EA030E52EA03356F
:100A70004FEA013100F088804FEA03334FF0805590
:100A800045EA131343EA12634FEA022245EA1115BD
:100A900045EA10654FEA00260EF000419D4208BF6E
:100AA000964244F1FD0404F5407402D25B084FEA1B
:100AB0003202B61A65EB03055B084FEA32024FF4C7
:100AC00080104FF4002CB6EB020E75EB030E22BF24
:100AD000B61A754640EA0C005B084FEA3202B6EBE4
:100AE000020E75EB030E22BFB61A754640EA5C0093
:100AF0005B084FEA3202B6EB020E75EB030E22BF23
:100B0000B61A754640EA9C005B084FEA3202B6EB23
:100B1000020E75EB030E22BFB61A754640EADC00E2
:100B200055EA060E18D04FEA051545EA16754FEA44
:100B300006164FEAC30343EA52734FEAC2025FEA62
:100B40001C1CC0D111F4801F0BD141EA00014FF0F1
:100B500000004FF0004CB6E711F4801F04BF0143C2
:100B60000020B4F1FD0C88BFBCF5E06F3FF6AFAEDE
:100B7000B5EB030C04BFB6EB020C5FEA500C50F16E
:100B8000000041EB045170BD0EF0004E4EEA1131F1
:100B900014EB5C04C2BFD4EB0C0541EA045170BDF8
:100BA00041F480114FF0000E013C90E645EA060E3C
:100BB0008DE60CEA135594EA0C0F08BF95EA0C0F6A
:100BC0003FF43BAF94EA0C0F0AD150EA01347FF4B2
:100BD00034AF95EA0C0F7FF425AF104619462CE789
:100BE00095EA0C0F06D152EA03353FF4FDAE1046EC
:100BF000194622E750EA410618BF52EA43067FF43D
:100C0000C5AE50EA41047FF40DAF52EA43057FF4CC
:100C1000EBAE12E74FF0FF3C06E000BF4FF0010CD7
:100C200002E000BF4FF0010C4DF804CD4FEA410C3B
:100C30007FEA6C5C4FEA430C18BF7FEA6C5C1BD008
:100C400001B050EA410C0CBF52EA430C91EA030F89
:100C500002BF90EA020F0020704710F1000F91EAE6
:100C6000030F58BF994208BF90422CBFD8176FEAB4
:100C7000E37040F0010070474FEA410C7FEA6C5C82
:100C800002D150EA013C07D14FEA430C7FEA6C5C89
:100C9000D6D152EA033CD3D05DF8040B704700BFB5
:100CA0008446104662468C461946634600E000BF03
:100CB00001B5FFF7B7FF002848BF10F1000F01BDD5
:100CC0004DF808EDFFF7F4FF0CBF012000205DF8A0
:100CD00008FB00BF4DF808EDFFF7EAFF34BF012025
:100CE00000205DF808FB00BF4DF808EDFFF7E0FFBE
:100CF00094BF012000205DF808FB00BF4DF808ED0F
:100D0000FFF7CEFF94BF012000205DF808FB00BF75
:100D10004DF808EDFFF7C4FF34BF012000205DF857
:100D200008FB00BF4FEA410C7FEA6C5C02D150EA3D
:100D3000013C0AD14FEA430C7FEA6C5C02D152EAD3
:100D4000033C02D14FF0000070474FF001007047A4
:100D50004FEA410212F5001215D211D56FF47873E3
:100D6000B3EB625212D94FEAC12343F0004343EA86
:100D7000505311F0004F23FA02F018BF4042704761
:100D80004FF00000704750EA013005D111F00040EB
:100D900008BF6FF0004070474FF00000704700BF81
:100DA000FEE7000003460B4A126842B1094A106888
:100DB00003446A46934206D8064A13607047054AC0
:100DC00005491160F2E7054B0C221A604FF0FF3025
:100DD000704700BF2C030210102D0210082D0210C6
:100DE00001207047024B16221A604FF0FF30704707
:100DF000082D021008B54FF0FF31FFF7F3FFFEE7B3
:100E000070B51646002405E04D1C087800F04CFC37
:100E100001342946B442F7DB304670BD4FF0FF3055
:100E200070474FF400534B6000207047012070471B
:100E30000020704770B50D461646002404E0AFF35D
:100E40000080287001340135B442F8DB304670BDB3
:100E500030B587B01546848C6400A4B2806A41F234
:100E6000883302930223019305AB009301230A46C2
:100E7000214601F02DFF48B99DF815209DF814304A
:100E800043EA02232B80012007B030BD0020FBE79E
:100E900010B5044602468821FFF7DAFF034608B979
:100EA000184610BDA21C8A212046FFF7D1FF034639
:100EB0000028F5D0221D8C212046FFF7C9FF0346EC
:100EC0000028EDD0A21D8E212046FFF7C1FF03466A
:100ED0000028E5D004F1080290212046FFF7B8FF72
:100EE00003460028DCD004F10A0292212046FFF7D5
:100EF000AFFF03460028D3D004F10C029421204612
:100F0000FFF7A6FF03460028CAD004F10E0296217F
:100F10002046FFF79DFF03460028C1D004F11002D0
:100F200098212046FFF794FF03460028B8D004F12B
:100F300012029A212046FFF78BFF03460028AFD00C
:100F400004F114029C212046FFF782FF034600288B
:100F5000A6D004F116029E212046FFF779FF034632
:100F60009EE730B587B0044600F11802818C490035
:100F700089B241F288330293012301930092A122A6
:100F8000806A01F0A5FE18B10025284607B030BDE3
:100F900004F11A02E1212046FFF75AFF0546002816
:100FA000F3D004F11C02A18C490089B241F28833CC
:100FB0000293012301930092E322A06A01F088FECC
:100FC00008B10025E1E70DF11602E4212046FFF704
:100FD0003FFF05460028D8D005AAE5212046FFF7A7
:100FE00037FF05460028D0D004F12202A18C490029
:100FF00089B241F288330293012301930092E722E0
:10100000A06A01F065FE68B9BDF81620130103F46B
:101010007F63C2F303221343E383BDF814301B093B
:101020002384B2E70025B0E730B587B006AD05F8F8
:10103000012D848C6400A4B2806A42F21073029382
:101040000123019300950A46214601F06FFD00B18E
:10105000012007B030BD032303700022427083706B
:10106000C370037143717047F0B587B0828CA2F1F1
:1010700076039BB2012B03D90026304607B0F0BDA2
:101080000C4605463230520091B241F28833029349
:10109000012301930090D022A86A01F019FE0028D4
:1010A00067D195F83230582B03D0602B01D0002641
:1010B000E3E7B622E0212846FFF7B6FF00285AD121
:1010C000AB8C5B0099B241F2883302930123019308
:1010D0000DF117020092F322A86A01F0F9FD002831
:1010E000EED19DF8173013F0010FE9D12846FFF734
:1010F000CFFE06460028C0D095F83230602B25D0B0
:1011000063796278920042EA431202F0FC02F52110
:101110002846FFF789FF80BB2378012B1DD0E2789A
:10112000A3789B0043EA42135BB294F90020134377
:10113000DFB295F83230602B12D03A46F4212846BF
:10114000FFF772FF002898D0002696E72846FFF7A1
:1011500008FF0028D4D106468FE700232370DEE77E
:101160002279F2212846FFF75FFF0028E5D000260C
:1011700083E7002681E700267FE700267DE72DE94B
:10118000F04F8BB004460E4607921D4690F8323061
:10119000602B00F06E81002D00F06E8100232B602B
:1011A0001D460623A18C490089B241F28832029281
:1011B000019308AB00930123F722A06A01F088FD98
:1011C000002840F05F819DF820309DF821E04FEA33
:1011D0000E1E4EEA033E9DF822304EEA131E9DF885
:1011E00023209DF824301B0143EA02339DF825207B
:1011F00043EA121223885900C1EBE201B4F902A0BC
:101200000AFB01F1C3EB221303FB03F31B13B4F935
:1012100004A00AFB03FA4FEAAA3A0AEBE12A0AEB16
:101220008A0380331B1233605046C117BAF5FA3B6C
:1012300041F1FF3C0BFB0CF3ABFB0B6707EB4307E8
:10124000B4F910804FEAE87906FB09F308FB07338D
:10125000A6FB0812CDE9041213440593B4F90E203D
:10126000D3170BFB03F102FB0C11ABFB02230B4466
:101270004FEA434949EAD2394FEA4248DDE90423BB
:1012800012EB080243EB090390469946B4F90C208F
:101290000020D10018EB000249EB0103CDE9042343
:1012A000B4F90A20D31706FB03F102FB0711A6FBD2
:1012B00002230B44160A46EA03661F12B4F908001B
:1012C000C1170BFB01F300FB0C33ABFB000119440E
:1012D0004FEA013949EA10594FEA003818EB060283
:1012E00049EB070312F1000843F50049E688A8FB23
:1012F000060106FB09114A10CB1752EA030100F060
:10130000BF80CEF5801E4FEA6E094FEACE78DDE948
:101310000401B8EB000069EB01018046894606181C
:1013200041EB010716EB000B47EB010C6646B101E0
:101330005E4641EA9B61B0011BEB000B4CEB010CDC
:101340004FEA8C0646EA9B764FEA8B0717EB0800BC
:1013500046EB09018E0046EA9076870017EB0800FD
:1013600046EB0901FFF728F883468C46B4F91620AE
:10137000D317460B614646EACC46CDE904BC4F1371
:1013800002FB07FC06FB03CCA2FB0612624406FB31
:1013900002F307FB0137A6FB01233B444FEA5268E7
:1013A00048EAC3184FEA6369B4F91420D317DDE99A
:1013B00004BC0BFB03F602FB0C66ABFB02233344BD
:1013C000D60C46EA4336DF141BEB08004CEB090150
:1013D00010EB060841EB07094FEA182343EA0963BB
:1013E000B4F9120002011344079A1360002D4DD086
:1013F0009DF826109DF8272042EA0122AAF5963A88
:10140000B4F91E100905C1EB8232B4F9201001FBBA
:101410001A2101F58041C91394F9222002FB0AF236
:101420009212237F03FB0AF3DB1203F5004303FB55
:1014300002F39B1203F50012B4F91A3003FB02F316
:1014400003F500539B1303FB01F3DA1302FB02F2D3
:10145000D211217E01FB02F2A3EB221323EAE373F4
:10146000B3F1C85FA8BF4FF0C8531B132B60012016
:1014700009E01DB1082395E6062393E6062391E6CD
:101480000023B1E700200BB0BDE8F08F0120FAE7A0
:1014900070B584B00E4615461C4643B301AB02AA94
:1014A00003A9FFF76CFE0346F0B1DDED037AF8EE19
:1014B000E77ADFED106A87EEA67A86ED007ADDED39
:1014C000027AF8EE677A9FED0C7A67EE877AC5EDBF
:1014D000007A4CB1DDED017AF8EE677A9FED077A7C
:1014E00067EE877AC4ED007A184604B070BD002319
:1014F000D5E700BF0000C8420000803B0000803AF2
:10150000F8B504460D4600F037FF074600260FE009
:10151000012000E0002001F035F9002850D025B16D
:1015200000F02AFFC01BA84202D900F057F902269A
:10153000244B9C42EED003F580539C422AD003F505
:1015400080539C4228D0B4F1502F27D003F500538C
:101550009C4225D003F580539C4223D003F5805351
:101560009C4221D003F580539C421FD003F5805349
:101570009C421DD003F580539C421BD003F5805341
:101580009C4219D0104B9C4218D0104B9C42BFD0AB
:101590002020C0E70020BEE70020BCE70020BAE71B
:1015A0000020B8E70020B6E70020B4E70020B2E74B
:1015B0000020B0E70020AEE70020ACE70020AAE75B
:1015C0003046F8BD002000500040005400D00050CC
:1015D00008B5274B984230D003F58053984231D05C
:1015E00003F5805398422FD0B0F1502F2ED003F541
:1015F000005398422CD003F5805398422AD003F52B
:101600008053984228D003F58053984226D003F5A2
:101610008053984224D003F58053984222D003F59A
:101620008053984220D0134B98421FD0124B9842BF
:1016300001D0202002E0012000E00020002101F084
:10164000AFF808BD0020F9E70020F7E70020F5E734
:101650000020F3E70020F1E70020EFE70020EDE7AE
:101660000020EBE70020E9E70020E7E70020E5E7BE
:10167000002000500040005400D00050084B1B6870
:101680000133B3F5006F02DB054B00221A600449F9
:101690000B68044AD05401330B600021D1547047C9
:1016A00030030210E403021010B50446FFF7E6FF12
:1016B000204610BD4FF0A0430122C3F8A82A70476E
:1016C00070B5044600F058FE054600F055FE0F497F
:1016D000A1FB0036B609A1FB0531636C4FF47A72A9
:1016E00002FB160289090A4805F0F8FEB4F8482002
:1016F00040F2FF739A4228BF1A46064D2A80616C59
:10170000054805F093F80123AB7070BDD34D62100E
:10171000F494001034030210180E021070B5044641
:1017200000F02AFE054600F027FE0F49A1FB003617
:10173000B609A1FB0531636C4FF47A7202FB160205
:1017400089090A4805F0CAFEB4F8482040F2FF7340
:101750009A4228BF1A46064DAA80616C054805F0DA
:1017600065F80123AB7170BDD34D62103895001040
:10177000340302101816021070B505460C460622F6
:10178000134905F002FFD0B9062C19D8142500F032
:10179000F3FD044600F0F0FD0E49A1FB0032920972
:1017A0004FF47A76A1FB04312B4606FB120289091D
:1017B000094805F093FE06FB05F000F0E3FD70BD5F
:1017C000A81D04F0E9FFC5B2002DE0D11425DEE725
:1017D0007C950010D34D62108495001008B500F080
:1017E000CBFD044600F0C8FD0749A1FB00239B097F
:1017F000A1FB04214FF47A7202FB1302890903480A
:1018000005F06CFEFEE700BFD34D6210CC950010D2
:1018100008B51148114B0360114B436000238360EE
:101820000122C260036143618361C361036201F00D
:101830001FF950B90021084801F020FB38B90021F8
:10184000054801F049FB20B908BDFFF7C7FFFFF7C6
:10185000C5FFFFF7C3FF00BF5C2B02100050014023
:10186000BC7D701008B50448044B036001F02EFCE9
:1018700000B908BDFFF7B2FF1C1E02100010004C9B
:1018800030B5D3B04FF48A7200210DA804F0D9FF0F
:101890003022002101A804F0D4FF01F035FC4FF004
:1018A000A042D2F8403123F0300343F02003C2F8C5
:1018B000403107230D934FF480730E9301230F9350
:1018C0001093102211920024129402221692179360
:1018D00003251895512119911A931B931C934FF4CA
:1018E00000611E911F934FF4804021904FF40051EE
:1018F00022912592269327954225289529922A936D
:101900002B934FF4A0552D952E9330903191349216
:10191000359336922225379538921125399525250C
:101920003A954FF080753B9541F604253C953D93E3
:101930003F904091439244930423459363234693FD
:10194000062347930823489349934A944B944C9415
:101950004E904F910DA801F049FFF0B9FF2301937C
:101960000222029201230393049200210591032095
:1019700006900791089309920A930B930C9301A880
:1019800002F030FA58B94FF0A042536C23F03F03F5
:1019900043F01703536453B030BDFFF71FFFFFF749
:1019A0001DFF00002DE9F0438DB000F0C9FCB64BDF
:1019B0001B6803F00703042B01D1FFF761FFFFF75A
:1019C00079FEFFF725FF00F0D7FC044600F0D4FCB9
:1019D000064600F0EBFC070E00F0E8FC050C00F0FA
:1019E000E5FCAA49A1FB06329209A1FB0431C0F330
:1019F00007200190EDB200953B464FF47A7000FB52
:101A000012628909A24805F069FD4FF0A0434FF426
:101A10000062C3F8A02AFFF725FF0021012000F093
:101A2000B5FA994B1B6803F00703042B05D14FF05F
:101A3000A0434FF40052C3F8902A00F09DFC0446E6
:101A400000F09AFC9149A1FB00239B09A1FB042112
:101A50004FF47A7202FB130289098E4805F03EFDAD
:101A60008D4804F041FEA0B100F086FC044600F071
:101A700083FC8649A1FB00239B09A1FB04214FF4B1
:101A80007A7202FB13028909844805F027FDFFF7EB
:101A9000A5FE00F071FC044600F06EFC7B49A1FB42
:101AA00000239B09A1FB04214FF47A7202FB13026D
:101AB00089097B4805F012FD7A4804F015FEA0B1B3
:101AC00000F05AFC044600F057FC7049A1FB0023CB
:101AD0009B09A1FB04214FF47A7202FB13028909CE
:101AE000714805F0FBFCFFF779FE704A00216A4857
:101AF00004F010FE08B1FFF771FE6D4A002169483D
:101B000004F008FE08B1FFF769FE6A4C2046FFF7B3
:101B1000A2FA762324F8083C674B44F8043C654855
:101B200001462C38FFF7A0FA60B3644B93F832609B
:101B3000602E38D1624A6349634805F0F7FC634B75
:101B400015221A80624B1B68ADF80C301B0C8DF807
:101B50000E30604B0893112309935F4C642120469B
:101B6000FFF7CEFC08A905A800F08EFC2046FFF781
:101B70002FFD4FF0A042D2F8143C43F48013C2F87A
:101B8000143C61E0504D554C0FCC28606960AA6050
:101B9000EB6020682861A288A379AA82AB754B4BC1
:101BA00016221A80BBE74E4AC5E74E4D4E4C0FCC6D
:101BB00028606960AA60EB60444B0F221A802946B6
:101BC000414805F0D3FC494B494A4A493B48FFF795
:101BD0005FFC0028E9D0464B1868FEF795FB80466D
:101BE0008946454C434B1868FEF78EFBCDE9000152
:101BF00042464B464149204605F098FC334B18803D
:101C00002146314805F0B2FC602E20D03C493D4BC6
:101C10001B880B802D4B01221A802B4805F0A6FC57
:101C20002948014605F082FC82B2284B1A80364BC7
:101C30009B7803BB4FF400620021234804F001FEAF
:101C4000314B9B79002B65D100F014FABBE7274B91
:101C50001868FEF759FB2D4C03AB009302460B4668
:101C60002B49204605F062FC184B18802146164887
:101C700005F07CFCD4E71449074804F051FD224BE1
:101C800000229A70D6E700BF00000250D34D6210C8
:101C9000009600105C9600100C2A0210A09600100E
:101CA000D49600106020021018970010C116001082
:101CB0001D170010DC2B02105C2B0210B02B021041
:101CC000F09500106497001008220210082A0210F4
:101CD000789700101D00010100D000504C970010B3
:101CE000F89500105C2A02107C9700105C2002100E
:101CF000581F0210181E02105C1F02108C97001053
:101D0000E42B0210EC97001034030210E80B0210D1
:101D1000B4970010064C074DA1882846FFF72CFD0C
:101D2000A2882946044804F0FBFC0023A3718BE73A
:101D300034030210181602106020021008B5034B7D
:101D400002221A60012201F083F908BD3C0302104F
:101D500008B50122024B5A6001F07AF908BD00BFB4
:101D60003C03021038B51F4B012200211E4801F030
:101D70003FF940B91D4B012211461B4801F038F9CB
:101D8000C0B9002038BD00F0F7FA044600F0F4FABC
:101D90001749A1FB0035AD09A1FB0431154B4FF4E8
:101DA0007A7202FB15028909134805F097FB4FF080
:101DB000FF30E7E700F0E0FA044600F0DDFA0C49F6
:101DC000A1FB0035AD09A1FB04310A4B4FF47A7237
:101DD00002FB15028909094805F080FB4FF0FF302E
:101DE000D0E700BF3D1D00101C1E0210511D001049
:101DF000D34D621088940010C8970010F09700101F
:101E000010B50F4B1B68022B0FD00D4B5B68012BDD
:101E100012D1012103F01AFF0024094B5C6001215B
:101E2000204603F013FF204610BD002103F00EFFF3
:101E30000020034B1860F7E74FF0FF30F4E700BFD6
:101E40003C03021070B50C4609B101290DD10022E6
:101E50002146154801F06EF801281DD000222146C8
:101E6000114801F0F5F8002070BD00F085FA054634
:101E700000F082FA0D49A1FB0036B609A1FB05313D
:101E800023464FF47A7202FB16028909084805F0CE
:101E900025FB4FF0FF30E7E700222146024801F022
:101EA00049F80128F8D0D9E71C1E0210D34D621062
:101EB0001898001030B58BB005462D4A07AB92E854
:101EC000030083E80300184603F07EFC294803F072
:101ED00055FC044610B120460BB030BD09AA264976
:101EE000264803F01BFC04460028F4D12449254A67
:101EF00011600023029301934FF0FF330093224BB4
:101F00005B1A09980C3003F07DFC099B9A6822B398
:101F10000C331C4A536023B305AA06A9284600F0D7
:101F2000B3F80699174B9960F1B10023029301931E
:101F30004FF0FF330093059B0A4609983C3003F0AD
:101F400061FC099B9A68012A09D93C330D4AD36088
:101F5000002BC0D14FF0FF34BDE70023D9E70023A9
:101F6000F4E74FF0FF34B6E74FF0FF34B3E700BFBC
:101F7000989400100000021044980010509800102F
:101F80000000041048030210008004102DE9F04105
:101F900084B005460E46FFF7E5FE2846FFF78AFFA8
:101FA000044618B1204604B0BDE8F081254B9A687C
:101FB000DB68002102912448019000911832FF2132
:101FC000284603F0A9FD0546002838D003F061FE3D
:101FD0001C4881680A6C4B6B4068CC6B896B029122
:101FE000019400900021284603F018FE04460028C2
:101FF000D8D1144881684A6D8B6C40680C6DC96CEF
:102000000291019400900121284603F007FE044646
:102010000028C7D10B4F07F110080C4A0C4BD21AFD
:102020004FF0FF31404604F09BF9CDF800807B680B
:102030003246294607F11C0004F09EF9B2E74FF042
:10204000FF34AFE748030210451E00100080041063
:102050000000041010B584B0069C02940193009215
:102060004FF0FF330A46024903F00EFF04B010BDE3
:102070006403021008B5034BD3F88000FFF7C0FEDD
:1020800008BD00BF480302108C231360014B0B6096
:10209000704700BF840202107047000008B5026854
:1020A000094B9A4200D008BD4FF0A0434FF4805234
:1020B000C3F8A02A00221146672000F08DF967209E
:1020C00000F0BEF9EFE700BF0010004C0268224BA1
:1020D0009A4200D0704730B5DDB0204B1B6803F04A
:1020E0000703042B2DD04FF4C0535793122358935A
:1020F000002459945A9404235B93194D6421284673
:10210000FFF7FEF957A9284600F04EFA2846FFF7D8
:102110005FFA4FF0A0434FF08072C3F8802A224646
:1021200021466B2000F058F96B2000F089F9224617
:1021300021466C2000F050F96C2000F081F95DB070
:1021400030BD20220023CDE90023022330936846CE
:1021500002F044FAC7E700BF0050014000000250FF
:10216000002000507047FEE7FEE7FEE7FEE77047FD
:102170007047704708B500F0F3F808BD08B502488D
:1021800000F0F2FE08BD00BF1C1E021010B44FF09C
:10219000A0439B6C03F00303032B0CD8DFE803F090
:1021A00002181C204FF0A0439A6902F00302404B32
:1021B000D340404A13604FF0A043D3F8302802F0D8
:1021C0000F023C490B68D3400B605DF8044B70472D
:1021D000384B394A1A60EEE7364B384A1A60EAE75C
:1021E0004FF0A042D2F8200800F00300D2F8841883
:1021F000C1F30541D2F88C38C3F30043D2F88C48C0
:10220000C4F3CC0403FB04F307EE903AB8EE677A0C
:10221000D2F88438C3F30803013307EE903AF8EE9E
:10222000677A9FED276AC7EE066A77EEA67A0131D4
:10223000032829D8DFE800F002121C264FF0A04343
:102240009A6902F003021A4BD340B3FBF1F107EE97
:10225000101AB8EE477A67EE877A15E0164BB3FB93
:10226000F1F107EE101AB8EE477A67EE877A0BE0C5
:10227000124BB3FBF1F107EE101AB8EE477A67EE96
:10228000877A01E0DFED0F7A4FF0A043D3F888386A
:1022900003F07F03013307EE103AB8EE477AC7EE3A
:1022A000876AFCEEE66A034BC3ED006A83E700BF72
:1022B0000090D0037C00021000366E0100093D0042
:1022C00000F8FF450000000008B5094AD2F8883040
:1022D00043F47003C2F88830064B00221A601A617A
:1022E0001A625A605A615A62FFF750FF08BD00BF78
:1022F00000ED00E0C0D0005010B504460E4B187839
:102300004FF47A73B3FBF0F30C4A1068B0FBF3F0B0
:1023100000F0A4F868B90F2C01D901200AE00022CE
:1023200021464FF0FF3000F057F8034B5C6000206F
:1023300000E0012010BD00BF800002107C000210F0
:1023400010B5032000F036F80020FFF7D5FF10B1DC
:102350000124204610BD0446FFF79EFEF9E7000069
:10236000034B1B78034A11680B441360704700BF8E
:1023700080000210E42C0210014B1868704700BF67
:10238000E42C021038B50446FFF7F6FF0546B4F119
:10239000FF3F02D0044B1B781C44FFF7EDFF401BAE
:1023A000A042FAD338BD00BF800002104FF0807009
:1023B00070470000074AD36823F4E0631B041B0C3A
:1023C000000200F4E060184340F0BF6040F40030C9
:1023D000D060704700ED00E030B4174BDB68C3F30A
:1023E0000223C3F10704042C28BF04241D1D062D5D
:1023F00018D9033B4FF0FF3505FA04F421EA040134
:10240000994005FA03F322EA0303194300280BDB82
:102410000901C9B200F1604000F5614080F8001385
:1024200030BC70470023E5E700F00F000901C9B296
:10243000024B1954F4E700BF00ED00E014ED00E09A
:10244000002807DB00F01F02400901239340024AE5
:1024500042F82030704700BF00E100E00138B0F1E1
:10246000807F0AD2064B5860064AF02182F823107A
:102470000020986007221A6070470120704700BF53
:1024800010E000E000ED00E000287BD000297BD0C8
:10249000F0B40A6802600868C0F3004200F01F044C
:1024A0000123A34010F0007F1CD04FEA421C0CF126
:1024B000A04505F550452F688E6816F0010F3CD0F9
:1024C0001F432F60324F5CF807508E6816F0020FE2
:1024D00036D01D434CF807500D6805F0C065B5F1C6
:1024E000C06F30D04C6814F0100F0FD01001294E7F
:1024F000855914F0010F39D01D438551264D44599B
:102500004E6816F0020F34D01C434451486810F056
:10251000200F3BD01201214D545910F0010F2BD048
:102520001C4354511E4C1059496811F0020F26D01B
:10253000034313510020F0BC704727EA0307C0E7AC
:1025400025EA0305C6E7A408164F183457F8246097
:1025500000F00300C000FF25854026EA0506CD688F
:1025600005FA00F0304347F82400BBE725EA0305ED
:10257000C3E724EA0304C8E724EA0304D1E720EA16
:102580000303D6E701207047012070470020D2E7FF
:1025900004D0005080D0005084D00050C0D00050F3
:1025A000C4D0005000D0005000230F2B00F2E18077
:1025B000F0B43AE00B2200E00022B2403A43183473
:1025C0006C4E46F824206C4A1468EA4302EA04067A
:1025D0004F6817F4803F01D045EA0406664C266038
:1025E000666802EA06044F6817F4003F01D045EA26
:1025F0000604614E74605F4C246802EA04064F686A
:1026000017F4801F01D045EA04065A4C266064681E
:1026100022404E6816F4001F01D045EA0402554CD2
:10262000626001330F2B00F2A28001229A400C68F5
:1026300004EA0205AA42F4D14C68022C01D0122C03
:1026400010D1DE08083650F826C003F00704A700B2
:102650000F24BC402CEA040C0C69BC4044EA0C0476
:1026600040F8264004685F000326BE40F64306EAB1
:10267000040C4C6804F00304BC4044EA0C040460FD
:102680004C6804F1FF3CBCF1010F03D9112C01D0BF
:10269000122C10D1846806EA040CCC68BC4044EAD1
:1026A0000C048460446824EA02024C68C4F30014F9
:1026B0009C4014434460C26816408A68BA40324362
:1026C000C2604A6812F0805FABD09C0804F1180623
:1026D000284A52F8267003F00302D600FF22B240C7
:1026E00027EA0207254A90423FF466AF02F580527E
:1026F000904228D002F58052904226D0B0F1502F5F
:1027000025D002F50052904223D002F5805290422B
:1027100021D002F5805290421FD002F580529042A3
:102720001DD002F5805290421BD002F5805290429B
:1027300019D002F58052904217D0114A90423FF4CE
:1027400039AF192239E7012237E7022235E70322A0
:1027500033E7042231E705222FE706222DE707227F
:102760002BE7082229E7092227E70A2225E7F0BC00
:102770007047704700D00050C0D00050002000507B
:102780000040005420304FF0984353F82020034B72
:102790009A4201D00120704700207047000200805B
:1027A00041F400714FF0984343F8201070470368DC
:1027B0009A6912F0020F01D000229A6203689A69A6
:1027C00012F0010F03D19A6942F001029A61704739
:1027D00070B4039E05686868740D04F4806444F066
:1027E0007F7444F4583444F47F7444F0030420EAC2
:1027F0000400C1F3090141EA024119433143014395
:10280000696070BC704770B504460D461646036893
:102810009B6913F0100F1CD023689A6912F0200FE7
:1028200019D1B5F1FF3FF7D0FFF7A6FD801BA842F5
:1028300001D8002DF0D1E36C43F02003E3642023A2
:1028400084F84930002384F84A3084F84830012065
:1028500020E000201EE01022DA6123682025DD61DF
:102860002046FFF7A4FF2268536823F0FF7323F488
:102870008B3323F4FF7323F001035360E36C43F0C5
:102880000403E36484F84950002384F84A3084F850
:102890004830012070BD70B504460D4616462368C9
:1028A0009B6913F0020F1DD1324629462046FFF7DF
:1028B000AAFFC8B9B5F1FF3FF1D0FFF75DFD801B5E
:1028C000A84201D8002DEAD1E36C43F02003E36471
:1028D000202384F84930002384F84A3084F84830B3
:1028E000012000E0002070BD0120FCE7F8B505469E
:1028F0000F4616461C462B689B6937EA03030CBF3C
:1029000001230023B34218D1B4F1FF3FF3D0FFF706
:1029100033FD069BC01AA04201D8002CEBD1EB6C12
:1029200043F02003EB64202385F84930002385F829
:102930004A3085F84830012000E00020F8BD000052
:1029400070B582B0044616461D46184B00934FF0F2
:102950008073EAB2FFF73CFF079A06992046FFF71B
:102960009AFFE8B9012D0ED12368F6B29E62079B4B
:102970000093069B002280212046FFF7B7FF034605
:1029800078B101230DE02368320A9A62079A06990A
:102990002046FFF780FF38B92368F6B29E62E6E76B
:1029A0000123184602B070BD0123FAE70020008021
:1029B00070B582B0044616461D46184B009300239E
:1029C000EAB2FFF705FF079A06992046FFF763FF73
:1029D000E8B9012D0ED12368F6B29E62079B0093E1
:1029E000069B002240212046FFF780FF034678B176
:1029F00001230DE02368320A9A62079A069920465D
:102A0000FFF749FF38B92368F6B29E62E6E7012373
:102A1000184602B070BD0123FAE700BF0020008015
:102A200070B505460C4616462B689B6913F0200FBF
:102A30001AD1324621462846FFF7E5FEB0B9FFF726
:102A40009BFC801BA04201D8002CEDD1EB6C43F025
:102A50002003EB64202385F84930002385F84A30B1
:102A600085F84830012070BD0020FCE70120FAE71E
:102A7000002859D010B5044690F84930002B43D0B7
:102A8000242384F849302268136823F0010313607B
:102A90006368226823F0706313612268936823F4EB
:102AA00000439360E368012B33D0A368226843F4AA
:102AB00004439360E368022B31D02268536843F0EB
:102AC000007343F4004353602268D36823F4004347
:102AD000D360236962691343A169226843EA012331
:102AE000D360E369216A22680B431360226813688C
:102AF00043F0010313600020E064202384F8493090
:102B0000206384F84A0010BD80F84830FFF7DEFAF1
:102B1000B6E7A368226843F400439360CAE72368DA
:102B20004FF400625A60C8E7012070472DE9F04772
:102B300082B0BDF82C7090F84950EDB2202D40F0D5
:102B4000BA800A9CDCB1D7B190F84840012C00F063
:102B5000B780984691460D4604464FF0010A80F82A
:102B600048A0FFF709FC06460090192352464FF48F
:102B700000412046FFF7BAFE30B101239CE04FF43C
:102B80000073C364012397E0212384F84930402374
:102B900084F84A300023E3640A9A626267856363BB
:102BA00001960C9B009343464A4629462046FFF770
:102BB000C7FE70B9638D9BB2FF2B0FD9FF22228510
:102BC000002300934FF0807329462046FFF700FE54
:102BD00021E0002384F8483053466DE0628D92B2C4
:102BE0002285002300934FF00073D2B2294620467D
:102BF000FFF7EEFD0FE0628D92B222850023009375
:102C00004FF00073D2B229462046FFF7E1FD638DF5
:102C10009BB2002B32D032460C992046FFF73BFE88
:102C200000284FD1626A236812789A62636A01337E
:102C30006362638D013B9BB26385238D013B9BB235
:102C40002385628D92B2002AE1D0002BDFD100965D
:102C50000C9B002280212046FFF748FEA0BB638D1D
:102C60009BB2FF2BC7D9FF222285002300934FF090
:102C7000807329462046FFF7ABFDC8E732460C9922
:102C80002046FFF7CDFE034600BB22682021D1611C
:102C90002068426822F0FF7222F48B3222F4FF7225
:102CA00022F00102426084F84910002284F84A2090
:102CB00084F8482000E00223184602B0BDE8F087FF
:102CC0000223F9E70123F7E70123F5E70123F3E7FF
:102CD0002DE9F04782B0BDF82C7090F84950EDB264
:102CE000202D40F0BC800A9CDCB1D7B190F8484060
:102CF000012C00F0B980984691460D4604464FF0ED
:102D0000010A80F848A0FFF737FB06460090192318
:102D100052464FF400412046FFF7E8FD30B1012351
:102D20009EE04FF40073C364012399E0222384F8EA
:102D30004930402384F84A300023E3640A9A6262EF
:102D40006785636301960C9B009343464A46294678
:102D50002046FFF72DFE70B9638D9BB2FF2B0FD974
:102D6000FF222285444B00934FF080732946204672
:102D7000FFF72EFD21E0002384F8483053466FE032
:102D8000628D92B222853C4B00934FF00073D2B219
:102D900029462046FFF71CFD0FE0628D92B2228586
:102DA000002300934FF00073D2B229462046FFF76C
:102DB0000FFD638D9BB2002B34D000960C9B00223C
:102DC00004212046FFF792FD00284FD123685A6A5C
:102DD000636A1A70636A01336362238D013B9BB29D
:102DE0002385628D013A92B26285628D92B2002A89
:102DF000DFD0002BDDD100960C9B002280212046E5
:102E0000FFF774FDA0BB638D9BB2FF2BC5D9FF22DA
:102E10002285002300934FF0807329462046FFF758
:102E2000D7FCC6E732460C992046FFF7F9FD03466A
:102E300000BB22682021D1612068426822F0FF7225
:102E400022F48B3222F4FF7222F00102426084F8F5
:102E50004910002284F84A2084F8482000E0022328
:102E6000184602B0BDE8F0870223F9E70123F7E72F
:102E70000123F5E70123F3E70024008090F84930AF
:102E8000DBB2202B24D190F84830012B22D0012333
:102E900080F84830242380F849300268136823F012
:102EA000010313600268136823F4805313600268FF
:102EB0001368194311600268136843F0010313603B
:102EC000202380F84930002380F8483018467047A6
:102ED000022070470220704790F84930DBB2202B67
:102EE00022D190F84830012B20D0012380F84830BF
:102EF000242380F849300268136823F0010313602B
:102F00000268136823F4706343EA012111600268C8
:102F1000136843F001031360202380F84930002335
:102F200080F84830184670470220704702207047EA
:102F3000704770475AB10A4BD86801F00F0101235E
:102F400003FA01F10840003018BF01207047054B1B
:102F5000D86801F00F01012303FA01F10840F2E7FC
:102F60000010004C1010004CF8B50746114B5E687D
:102F7000F64306F03F03104AD6681E40002502E0E3
:102F800026EA040601359EB105F00F0301249C409A
:102F90002642F7D0074A53682343536007EB850363
:102FA0005B68002BECD00122294638469847E7E7BA
:102FB000F8BD00BF1010004C0010004C51B10B497F
:102FC0004B6800F00F00012202FA00F023EA000033
:102FD0004860704705494B6800F00F004FF480329D
:102FE00002FA00F023EA0000486070471010004C1D
:102FF00060B338B5054690F83840E4B2012C01D0F2
:10300000012038BD82B9881D05EB8000436001F0C6
:103010000F004FF4803303FA00F06B6B03436B63D4
:10302000012A0DD00020ECE700EB8100436001F0A5
:103030000F00012303FA00F06B6B03436B63EFE7B0
:1030400008461146FFF7BAFF0020DAE70120704773
:1030500038B590F83830DBB2012B01D0012038BDF3
:103060000B4B9C6862B94FF4803301F00F05AB4005
:103070001C43074DAC60406B834303D00020EEE758
:103080000123F2E708461146FFF798FF0020E6E724
:103090001010004C002309E000EB83020549516049
:1030A0009A1D00EB8202044951600133052BF3D9CC
:1030B000704700BF312F0010332F00100023036032
:1030C0004FF03F1343603F2383607047C0B138B572
:1030D000044690F8383083B10A4D2846FFF7EEFFDA
:1030E0002B6843F001132B602046FFF7D3FF00202D
:1030F0006063012384F8383038BDFEF7CFFFEBE77B
:10310000012070471010004C024A136843F480738A
:10311000136070470010005038B505464FF0A043CB
:103120004FF480721A61FFF727F904464FF0A0436D
:10313000D3F8083813F4807F06D0FFF71DF9001B81
:103140006428F3D9032038BD4FF0A0434FF49062B8
:103150001A617DB3B5F5A06F19D0B5F5B06F1CD06D
:103160004FF0A042D36843F48073D360FFF704F9B3
:1031700004464FF0A043D3F8083813F4807F17D1EA
:10318000FFF7FAF8001B6428F3D90320DBE71A469F
:10319000DB6843F48063D360E2E74FF0A043DA6872
:1031A00042F08002DA60DA6842F48062DA60D7E7DF
:1031B0000020C8E70020C6E738B505464FF0A0421A
:1031C000D2F8403123F00103C2F84031FFF7D4F8C0
:1031D00004464FF0A043D3F8403113F0040F08D059
:1031E000FFF7CAF8001B41F288339842F1D9032057
:1031F00038BD4FF0A042D2F8403123F00A03C2F8A4
:103200004031B5B3032D1CD00B2D21D04FF0A0427F
:10321000D2F8403143F00103C2F84031FFF7ACF877
:1032200004464FF0A043D3F8403113F0040F1ED1F1
:10323000FFF7A2F8001B41F288339842F1D903202E
:10324000D6E7D2F8403143F00203C2F84031DDE75F
:103250004FF0A043D3F8402142F00802C3F84021C8
:10326000D3F8402142F00202C3F84021CEE700200B
:10327000BEE70020BCE7000038B50368002B00F073
:103280001D814FF0A042126A02F00302022A29D0E7
:103290004FF0A042126A02F00302032A29D004462A
:1032A000022B2DD04FF0A043D3F8802022F07002E3
:1032B000C3F88020D3F8802022F00102C3F88020D8
:1032C000FFF75AF804464FF0A043D3F8803013F0CC
:1032D000020F00F0F180FFF74FF8001B6428F2D9CD
:1032E0000320ECE04FF0A042126A002AD0DA01205D
:1032F000E5E04FF0A042126A002AD0DA0120DEE0B9
:103300004FF0A043D3F8802022F07002C3F8802051
:10331000D3F8802022F00102C3F88020FFF72CF8B8
:1033200005464FF0A043D3F8803013F0020F06D0CB
:10333000FFF722F8401B6428F3D90320BFE04FF0C9
:10334000A0435B6A03F00703022B13D04FF0A042A7
:10335000936A23F0030361680B4393624FF0A04329
:103360009B6A002B15DBFFF707F8401B6428F5D993
:103370000320A4E04FF0A0435B6A002BE6DA62680A
:103380004FF0A0439B6A03F003039A42E6D001206A
:1033900095E04FF0A041D1F88420494B1340E268FA
:1033A000013AA068013842EA00421343C1F8843070
:1033B000D1F8883023F07F1323F4FE432269013AC9
:1033C0006069013842EA0022A069013842EA0042FD
:1033D0001343C1F88830D1F88C3023F48033C1F81E
:1033E0008C30636A022B00D0ABBB4FF0A042D2F806
:1033F0008C3023F47F4323F0F803C2F88C304FF075
:10340000A042D2F88C3043F48033C2F88C30636A27
:10341000022B2ED04FF0A042D2F8803023F00403CC
:10342000C2F880304FF0A042D2F8803043F0010360
:10343000C2F88030FEF7A0FF04464FF0A043D3F857
:10344000803013F0020F2DD1FEF796FF001B642889
:10345000F3D9032033E04FF0A042D2F88C3023F4AC
:103460007F4323F0F803216A43EAC103C2F88C309A
:10347000C5E71146D2F8902002F00042A36A206B03
:103480000343E06A0343606B0343A06B43EA0043DA
:103490001343C1F89030D1F8803043F00403C1F8F1
:1034A0008030BFE74FF0A042D2F8803043F0700385
:1034B000C2F88030002002E0002000E0002038BD8B
:1034C00000FEC0FF0368032B47D8DFE803F00222A9
:1034D0002B344FF0A043D3F8083813F0010F3ED03F
:1034E00010B54FF0A042136A23F0030301680B43A9
:1034F0001362FEF741FF04464FF0A0431B6A002B06
:1035000029DBFEF739FF001BB0F57A7FF4D90320E1
:1035100022E04FF0A043D3F8083813F4807FDFD1C6
:10352000012070474FF0A043D3F8803013F0020F12
:10353000D6D1012070474FF0A043D3F8803013F06C
:10354000020F0ED04FF0A042D36A23F00703416868
:103550000B43D362C4E7002010BD01207047012057
:1035600070470120704738B50368012B26D0E3B1BE
:10357000022B2CD004464FF0A0414A6A22F00702E9
:1035800013434B620368032B2AD0FEF7F5FE054672
:103590004FF0A0435B6A002B32DBFEF7EDFE401BD1
:1035A000B0F57A7FF4D9032038BD4FF0A042D2F8AD
:1035B000082812F0010FDDD10120F5E74FF0A042FD
:1035C000D2F8082812F4807FD4D10120ECE74FF024
:1035D000A042D2F8942012F0020FCBD10120E3E7F1
:1035E000FEF7CAFE05464FF0A0435B6A002B07DAE0
:1035F000FEF7C2FE401BB0F57A7FF4D90320D3E773
:103600004FF0A042136B23F0070361680B43136371
:10361000FEF7B2FE04464FF0A0431B6B002B07DB06
:10362000FEF7AAFE001BB0F57A7FF4D90320BBE7B2
:103630000020B9E730B44FF0A042D2F8201801F0D2
:103640000301D2F88438C3F305435D1CD2F88C38EB
:10365000C3F30043D2F88C48C4F3CC0403FB04F357
:1036600007EE903AB8EE677AD2F88438C3F30803CD
:10367000013307EE903AF8EE677A9FED3A6AC7EEAB
:10368000066A77EEA67A03293AD8DFE801F002232A
:103690002D374FF0A043D3F8083813F0040F0FD0A4
:1036A0004FF0A0439A6902F003022F4BD340B3FBC3
:1036B000F5F307EE103AB8EE477A67EE877A1FE027
:1036C000294BB3FBF5F307EE103AB8EE477A67EEF5
:1036D000877A15E0254BB3FBF5F307EE103AB8EE09
:1036E000477A67EE877A0BE0214BB3FBF5F307EEE1
:1036F000103AB8EE477A67EE877A01E0DFED1D7A7F
:103700004FF0A042D2F8883803F07F03013307EE70
:10371000103AB8EE477AC7EE876AFCEEE66AC0ED6B
:10372000006AD2F88838C3F30623013307EE103A53
:10373000B8EE477AC7EE876AFCEEE66AC0ED016A2A
:10374000D2F88838C3F30643013307EE103AB8EED7
:10375000477AC7EE876AFCEEE66AC0ED026A30BCC3
:10376000704700BF00F8FF450090D00300366E019F
:1037700000093D00000000004FF0A0439B6C03F0E7
:103780000303032B03D8DFE803F00D171504002013
:10379000704700B585B001A8FFF74CFF019805B050
:1037A0005DF804FB4FF0A0439B6903F0030303485B
:1037B000D840704702487047024870470090D003D5
:1037C00000093D0000366E0110B54FF0A043D3F85C
:1037D000304804F00F04092C00D90924FFF7CCFF6E
:1037E000E04010BD08B5FFF7EFFF08BD38B5002871
:1037F00000F07C820446036813F0010F3ED04FF0C6
:10380000A0431B6A03F00303012B00F09B804FF0E1
:10381000A0435B6A03F00703012B00F0A6804FF082
:10382000A0439B6C03F00303012B00F0A5804FF035
:10383000A0439B6A03F00303012B00F0A4804FF028
:10384000A043D3F8203803F00303012B00F0AA8033
:103850004FF0A043D3F8243803F00303012B06D123
:103860004FF0A043D3F8943813F0020F70D1606882
:10387000FFF752FC0346002840F03982236813F01A
:10388000020F00F0ED804FF0A0431B6A13F0030F0E
:1038900004D14FF0A0431B6A002B47DB4FF0A0433D
:1038A0005B6A13F0070F04D14FF0A0435B6A002B53
:1038B0003CDB4FF0A0439B6C13F0030F04D14FF09F
:1038C000A0439B6C002B31DB4FF0A0439B6A13F0AD
:1038D000030F0DD14FF0A043D3F8803013F0020F47
:1038E00024D14FF0A043D3F8943013F0020F1DD130
:1038F0004FF0A043D3F8203813F0030F06D14FF058
:10390000A043D3F8803813F0020F0FD14FF0A0433B
:10391000D3F8243813F0030F40F0DC804FF0A043BD
:10392000D3F8943813F0020F00F0D4804FF0A04386
:10393000D3F8083813F0010F3CD0E368012B39D0DD
:103940000123D4E14FF0A0431B6A002BBFF65FAF09
:103950004FF0A043D3F8083813F4807F8ED063680B
:10396000B3F5807F8AD00123C1E14FF0A0435B6AA9
:10397000002BBFF654AFEBE74FF0A0439B6C002B3E
:10398000BFF655AFE4E74FF0A043D3F8803013F013
:10399000020FDDD14FF0A043D3F8943013F0020FA3
:1039A000D6D14CE74FF0A043D3F8803813F0020F84
:1039B000CED14DE74FF0A042936923F47C532169A7
:1039C00043EA01239361936A13F0030F09D1D2F8FC
:1039D000803013F0020F39D1D2F8943013F0020F77
:1039E00034D14FF0A043D3F8203813F0030F06D1A1
:1039F0004FF0A043D3F8803813F0020F26D14FF0D8
:103A0000A043D3F8243813F0030F06D14FF0A0439E
:103A1000D3F8943813F0020F18D14FF0A0429369F5
:103A200023F0030361690B439361FEF7A5FC054690
:103A30004FF0A043D3F8083813F0040F06D1FEF777
:103A40009BFC401B6428F3D9032350E1FFF7CAFE17
:103A5000A94B18600020FEF74FFC002840F0498178
:103A6000236813F0100F00F0B5804FF0A043D3F897
:103A7000203803F00303022B7FD04FF0A0439B6C50
:103A800003F00303022B00F08C804FF0A043D3F827
:103A9000243803F00303022B00F08A80E369002B33
:103AA00000F0C1804FF0A042D36843F01003D36010
:103AB000FEF762FC05464FF0A043D3F8083813F038
:103AC000100F40F0A680FEF757FC401B6428F2D987
:103AD00003230CE1E368002B39D04FF0A042D368F8
:103AE00043F00103D360FEF747FC05464FF0A043C7
:103AF000D3F8083813F0010F06D1FEF73DFC401B48
:103B00006428F3D90323F2E04FF0A042936923F035
:103B1000030361690B439361FEF72EFC05464FF0EA
:103B2000A043D3F8083813F0040F06D1FEF724FCA5
:103B3000401B6428F3D90323D9E04FF0A0429369D6
:103B400023F47C53216943EA0123936188E74FF012
:103B5000A04301221A61FEF70FFC05464FF0A04377
:103B6000D3F8083813F0010F3FF47AAFFEF704FCE6
:103B7000401B6428F2D90323B9E04FF0A043D3F8E7
:103B8000803813F0020F3FF478AF4FF0A043D3F822
:103B9000083813F0100F14D0E369102B11D0012353
:103BA000A5E04FF0A0439B6C002BBFF66EAFECE797
:103BB0004FF0A043D3F8943813F0020F3FF46EAFE8
:103BC000E3E74FF0A042D36923F4F853216A43EAB4
:103BD0000123D361236813F0080F52D0A369BBB34C
:103BE0004FF0A042D2F8443143F00103C2F844310F
:103BF000FEF7C2FB05464FF0A043D3F8443113F063
:103C0000020F3ED1FEF7B8FB401B6428F3D9032313
:103C10006DE04FF0A042D36923F4F853216A43EAE0
:103C20000123D361D6E74FF0A04310221A61FEF7BB
:103C3000A3FB05464FF0A043D3F8083813F0100F4C
:103C4000C8D0FEF799FB401B6428F3D903234EE04C
:103C50004FF0A042D2F8443123F00103C2F84431BE
:103C6000FEF78AFB05464FF0A043D3F8443113F02A
:103C7000020F06D0FEF780FB401B6428F3D9032314
:103C800035E0236813F0040F18D01C4A136843F47E
:103C900080731360FEF770FB0546184B1B6813F426
:103CA000807F06D1FEF768FB401B6428F5D903230B
:103CB0001DE0A068FFF780FA0346C0B904F12400B4
:103CC000FFF7DAFA034690B904F1600000F04EF90C
:103CD000034660B904F19C0000F072FA034630B963
:103CE00004F1D80000F07AFB034600E001231846F7
:103CF00038BD0123FBE700BF7C000210001000501C
:103D000038B50368032B0AD8DFE803F002212A3311
:103D10004FF0A042D2F8082812F0010F5DD00546FE
:103D20004FF0A0418A6C22F0030213438B64FEF72C
:103D300023FB04464FF0A0439B6C002B22DBFEF7D5
:103D40001BFB001BB0F57A7FF4D9032038BD4FF080
:103D5000A042D2F8082812F4807FE0D10120F5E7D4
:103D60004FF0A042D2F8082812F0100FD7D101204E
:103D7000ECE74FF0A042D2F8802812F0020FCED12B
:103D80000120E3E7FFF72EFD154B18600020FEF73A
:103D9000B3FA4FF0A042D2F8303823F00F0369682D
:103DA0000B43C2F83038FEF7E7FA04464FF0A04361
:103DB000D3F83038002B07DBFEF7DEFA001BB0F536
:103DC0007A7FF3D90320C1E7FFF70CFD044B18609D
:103DD0000020FEF791FA0020B8E70120B6E700BF07
:103DE0007C00021038B5002800F0BD80044603684E
:103DF00013F0010F1DD1236813F0020F20D12368A7
:103E000013F0040F24D1236813F0080F28D123687E
:103E100013F0100F3CD1236813F0200F50D123680A
:103E200013F0400F67D1236813F0800F7ED1002379
:103E30009AE00430FFF746FB03460028DBD093E00E
:103E400004F10C00FFF78FFB03460028D7D08BE06E
:103E500004F11400FFF754FF03460028D3D083E099
:103E60004FF0A042D36B23F00703E1690B43D36308
:103E7000FEF782FA05464FF0A043DB6B002BC6DB52
:103E8000FEF77AFA401BB0F57A7FF4D903236BE092
:103E90004FF0A042136C23F00703216A0B43136415
:103EA000FEF76AFA05464FF0A0431B6C002BB2DB0D
:103EB000FEF762FA401BB0F57A7FF4D9032353E092
:103EC0004FF0A042D2F8343823F00703616A0B4365
:103ED000C2F83438FEF750FA05464FF0A043D3F845
:103EE0003438002B9BDBFEF747FA401BB0F57A7F96
:103EF000F3D9032338E04FF0A042D2F8383823F04A
:103F00000703A16A0B43C2F83838FEF735FA0546B5
:103F10004FF0A043D3F83838002B84DBFEF72CFA9F
:103F2000401BB0F57A7FF3D903231DE04FF0A04288
:103F3000D2F83C3823F00703E16A0B43C2F83C385F
:103F4000FEF71AFA04464FF0A043D3F83C38002B92
:103F500007DBFEF711FA001BB0F57A7FF3D90323D4
:103F600002E0002300E00123184638BD38B503689D
:103F7000002B00F020814FF0A042526A02F00702AD
:103F8000022A12D00446022B40F0F4804FF0A043E6
:103F90009B6A13F0030F0FD04FF0A0439B6A03F00E
:103FA0000303012B08D0012006E14FF0A042526A22
:103FB000002AE7DA0120FFE04FF0A043D3F8942075
:103FC00022F07002C3F89420D3F8942022F001026A
:103FD000C3F89420FEF7D0F905464FF0A043D3F87C
:103FE000943013F0020F06D0FEF7C6F9401B642888
:103FF000F3D90320E0E04FF0A0431B6A03F0030372
:10400000022B71D04FF0A0431B6A03F00303032B74
:1040100079D04FF0A042936A23F0030361680B4309
:1040200093624FF0A041D1F89820644B1340E268AE
:10403000013AA068013842EA00421343C1F89830BF
:10404000D1F89C3023F07F1323F4FE432269013A18
:104050006069013842EA0022A069013842EA004260
:104060001343C1F89C30D1F8A03023F48033C1F859
:10407000A030636A022B01D0002B4AD14FF0A0423E
:10408000D2F8A03023F47F4323F0F803C2F8A03025
:104090004FF0A042D2F8A03043F48033C2F8A030F1
:1040A000636A022B43D04FF0A042D2F8943023F041
:1040B0000403C2F894304FF0A042D2F8943043F099
:1040C0000103C2F89430FEF757F904464FF0A043BD
:1040D000D3F8943013F0020F42D1FEF74DF9001BD4
:1040E0006428F3D9032067E04FF0A0431B6A002B3C
:1040F00088DA62684FF0A0439B6A03F003039A4298
:104100008FD0012058E04FF0A0431B6A002B80DACB
:10411000EFE74FF0A042D2F8A03023F47F4323F022
:10412000F803216A43EAC103C2F8A030B0E71146A0
:10413000D2F8A42002F00042A36A206B0343E06A95
:104140000343606B0343A06B43EA00431343C1F88E
:10415000A430D1F8943043F00403C1F89430AAE7B6
:104160004FF0A042D2F8943043F07003C2F894307C
:10417000002021E04FF0A043D3F8942022F07002F9
:10418000C3F89420D3F8942022F00102C3F89420BD
:10419000FEF7F2F804464FF0A043D3F8943013F042
:1041A000020F06D0FEF7E8F8001B6428F3D90320BD
:1041B00002E0002000E0002038BD00BF00FEC0FF8C
:1041C00038B50368002B00F004814FF0A042926CD8
:1041D00002F00302032A22D00446022B26D04FF01D
:1041E000A043D3F8802822F07002C3F88028D3F8C7
:1041F000802822F00102C3F88028FEF7BDF80446AB
:104200004FF0A043D3F8803813F0020F00F0DF80A6
:10421000FEF7B2F8001B6428F2D90320DAE04FF071
:10422000A042926C002AD7DA0120D3E04FF0A043DD
:10423000D3F8802822F07002C3F88028D3F88028B1
:1042400022F00102C3F88028FEF796F805464FF0E9
:10425000A043D3F8803813F0020F06D0FEF78CF895
:10426000401B6428F3D90320B4E04FF0A042D2F8F9
:10427000203823F0030361680B43C2F820384FF065
:10428000A043D3F82038002B06DBFEF775F8401B5F
:104290006428F4D903209DE04FF0A043D3F884288C
:1042A00022F04072E1690A43C3F88428D3F88418E5
:1042B000494A0A40E1680139A068013841EA0041F1
:1042C0000A43C3F88428D3F8882822F07F1222F406
:1042D000FE42216901396069013841EA0021A06983
:1042E000013841EA00410A43C3F88828D3F88C28F2
:1042F00022F48032C3F88C28636A022B00D0ABBB57
:104300004FF0A042D2F88C3823F47F4323F0F80317
:10431000C2F88C384FF0A042D2F88C3843F4803386
:10432000C2F88C38636A022B2ED04FF0A042D2F82C
:10433000803823F00403C2F880384FF0A042D2F84E
:10434000803843F00103C2F88038FEF715F80446C0
:104350004FF0A043D3F8803813F0020F2DD1FEF7B1
:104360000BF8001B6428F3D9032033E04FF0A04280
:10437000D2F88C3823F47F4323F0F803216A43EA10
:10438000C103C2F88C38C5E71146D2F8902802F074
:104390000042A36A206B0343E06A0343606B03435C
:1043A000A06B43EA00431343C1F89038D1F880383A
:1043B00043F00403C1F88038BFE74FF0A042D2F8C1
:1043C000803843F07003C2F88038002002E00020FB
:1043D00000E0002038BD00BF00FEC0FF38B5036814
:1043E000002B00F0F6800446022B1FD04FF0A043B4
:1043F000D3F8942822F07002C3F89428D3F89428B4
:1044000022F00102C3F89428FDF7B6FF04464FF0EE
:10441000A043D3F8943813F0020F00F0D880FDF7D2
:10442000ABFF001B6428F2D90320D3E04FF0A04378
:10443000D3F8942822F07002C3F89428D3F8942873
:1044400022F00102C3F89428FDF796FF05464FF0CD
:10445000A043D3F8943813F0020F06D0FDF78CFF79
:10446000401B6428F3D90320B4E04FF0A042D2F8F7
:10447000243823F0030361680B43C2F824384FF05B
:10448000A043D3F82438002B06DBFDF775FF401B53
:104490006428F4D903209DE04FF0A043D3F8982876
:1044A00022F04072E1690A43C3F89828D3F89818BB
:1044B000494A0A40E1680139A068013841EA0041EF
:1044C0000A43C3F89828D3F89C2822F07F1222F4DC
:1044D000FE42216901396069013841EA0021A06981
:1044E000013841EA00410A43C3F89C28D3F8A028C8
:1044F00022F48032C3F8A028636A022B00D0ABBB41
:104500004FF0A042D2F8A03823F47F4323F0F80301
:10451000C2F8A0384FF0A042D2F8A03843F480335C
:10452000C2F8A038636A022B2ED04FF0A042D2F816
:10453000943823F00403C2F894384FF0A042D2F824
:10454000943843F00103C2F89438FDF715FF044690
:104550004FF0A043D3F8943813F0020F2DD1FDF79C
:104560000BFF001B6428F3D9032033E04FF0A04277
:10457000D2F8A03823F47F4323F0F803216A43EAFA
:10458000C103C2F8A038C5E71146D2F8A42802F04A
:104590000042A36A206B0343E06A0343606B03435A
:1045A000A06B43EA00431343C1F8A438D1F8943810
:1045B00043F00403C1F89438BFE74FF0A042D2F8AB
:1045C000943843F07003C2F89438002002E00020D1
:1045D00000E0002038BD00BF00FEC0FF70B5C6B0CF
:1045E0000446D0E9000100F40002002313430AD07E
:1045F0004FF0A042D2F8D03023F00303D4F81411C6
:104600000B43C2F8D030D4E9000100F010020023BF
:1046100013430FD0D4F8BC30012B00F07A834FF055
:10462000A042D2F8C03823F00703D4F8BC100B43E3
:10463000C2F8C038D4E9000100F02002002313437F
:104640000FD0D4F8C030012B00F073834FF0A0429C
:10465000D2F8C43823F00703D4F8C0100B43C2F8D3
:10466000C438D4E90001002201F0200313430FD025
:10467000D4F8C430012B00F06C834FF0A042D2F884
:10468000C03023F00703D4F8C4100B43C2F8C03085
:10469000D4E9000100F080020023134315D0D4F8C0
:1046A000C830012B00F07583002B00F06283042BCF
:1046B00000F07F834FF0A042D2F8C83823F0070300
:1046C000D4F8C8100B43C2F8C838D4E9000100F48C
:1046D00080720023134315D0D4F8CC30012B00F0A6
:1046E0008883002B00F07583052B00F092834FF038
:1046F000A042D2F8CC3823F00703D4F8CC100B43F7
:10470000C2F8CC38D4E9000100F48022002313431E
:1047100015D0D4F8D030012B00F09D83002B00F091
:104720008983042B00F0A8834FF0A042D2F8D03840
:1047300023F00703D4F8D0100B43C2F8D038D4E9E3
:10474000000100F080420023134315D0D4F8D43088
:10475000012B00F0B383002B00F09F83042B00F0AB
:10476000BE834FF0A042D2F8D43823F00703D4F828
:10477000D4100B43C2F8D438D4E9000100F08062B1
:104780000023134315D0D4F8D830012B00F0C9838F
:10479000002B00F0B583042B00F0D4834FF0A0422F
:1047A000D2F8D83823F00703D4F8D8100B43C2F856
:1047B000D838D4E9000100F000620023134315D07B
:1047C000D4F8DC30012B00F0DF83002B00F0CB832A
:1047D000042B00F0EA834FF0A042D2F8DC3823F03B
:1047E0000703D4F8DC100B43C2F8DC38D4E900012D
:1047F00000F08052002313430FD0D4F8E030012B97
:1048000000F0E4834FF0A042D2F8E03823F0070331
:10481000D4F8E0100B43C2F8E038D4E9000100F00E
:1048200000520023134312D0D4F8E430012B00F0DF
:10483000DE83052B00F0EC834FF0A042D2F8C430A9
:1048400023F00703D4F8E4100B43C2F8C430D4E9D2
:10485000000100F48042002313430FD0D4F8F43059
:10486000012B00F0E6834FF0A042D2F8E43823F0A9
:104870000703D4F8F4100B43C2F8E438D4E900017C
:1048800000F00202002313430FD0D4F8EC30012BC8
:1048900000F0E0834FF0A042D2F8E83823F007039D
:1048A000D4F8EC100B43C2F8E838D4E9000100F06A
:1048B0000402002313430FD0D4F8F030012B00F092
:1048C000DA834FF0A042D2F8EC3823F00703D4F893
:1048D000F0100B43C2F8EC38D4E9000100F40042B8
:1048E000002313430FD0D4F8F830012B00F0D48309
:1048F0004FF0A042D2F8F03823F00703D4F8F810B4
:104900000B43C2F8F038D4E9000100F001020023A3
:10491000134312D0D4F8E830012B00F0CE83042BDF
:1049200000F0DC834FF0A042D2F8C83023F0070338
:10493000D4F8E8100B43C2F8C830D4E9000100F005
:1049400000420023134312D0D4F8FC30012B00F0B6
:10495000D683022B00F0E4834FF0A042D2F8F43863
:1049600023F00303D4F8FC100B43C2F8F438D4E965
:104970000001002201F00103134312D0D4F80031EA
:10498000012B00F0DE83022B00F0EC834FF0A042FD
:10499000D2F8F83823F00303D4F800110B43C2F81F
:1049A000F838D4E90001002201F00203134312D0C9
:1049B000D4F80431002B00F0E683012B00F0F483DF
:1049C0004FF0A042D2F8FC3823F00303D4F80411CE
:1049D0000B43C2F8FC38D4E9000100F400120023B4
:1049E000134312D0D4F80C31012B00F0EF83022BCB
:1049F00000F0FD834FF0A042D2F8003923F003030A
:104A0000D4F80C110B43C2F80039D4E9000100F4CA
:104A100080120023134312D0D4F80831012B00F088
:104A2000F883022B00F007844FF0A042D2F804393B
:104A300023F00303D4F808110B43C2F80439D4E976
:104A4000000100F000720023134315D0D4F81C318C
:104A5000022B00F01484032B00F02384012B00F0C0
:104A6000FC834FF0A042D2F80C3923F00303D4F8B2
:104A70001C110B43C2F80C39D4E9000100F080721C
:104A80000023134312D0D4F81831002B00F01B84FC
:104A9000012B00F02A844FF0A042D2F8143923F001
:104AA0000303D4F818110B43C2F81439D4E90001F8
:104AB00000F40052002313430AD04FF0A042D2F872
:104AC000183923F00303D4F834110B43C2F8183912
:104AD000D4E9000100F40072002313430FD0D4F88E
:104AE0002C31012B00F013844FF0A042D2F81C3976
:104AF00023F00303D4F82C110B43C2F81C39D4E97A
:104B0000000100F40022002313430FD0D4F8303109
:104B1000002B00F00E844FF0A042D2F81C3923F095
:104B20001003D4F830110B43C2F81C39D4E900014A
:104B3000002201F0040313430FD0D4F82031012BDD
:104B400000F009844FF0A042D2F8CC3023F00303E8
:104B5000D4F820110B43C2F8CC30D4E90001002274
:104B600001F0080313430FD0D4F82431012B00F0D7
:104B700004844FF0A042D2F8203923F00303D4F884
:104B800024110B43C2F82039D4E90001002201F0BE
:104B9000100313430AD04FF0A042D2F8D43023F0D0
:104BA0000303D4F828110B43C2F8D430D4E9000130
:104BB00000F48002002313430FD0D4F81031012BEE
:104BC00000F0ED834FF0A042D2F8243923F0010326
:104BD000D4F810110B43C2F82439D4E9000100F0D5
:104BE00008020023134312D0D4F84431002B00F004
:104BF000E783022B00F0F5834FF0A042D2F828396A
:104C000023F00303D4F844110B43C2F82839D4E944
:104C1000000100F400320023134320D0D4F84031C7
:104C2000012B00F0F083022B0ED104F14400FFF7BA
:104C3000C7FA0546002869D14FF0A042D2F8803863
:104C400043F02003C2F880384FF0A042D2F82C394C
:104C500023F00703D4F840110B43C2F82C39D4E9F0
:104C6000000100F48032002313430FD0D4F83C310C
:104C7000012B00F0D9834FF0A042D2F8303923F055
:104C80000703D4F83C110B43C2F83039D4E90001D2
:104C900000F04002002313431FD0D4F83831012B19
:104CA00000F0D383022B0DD104F14400FFF788FA02
:104CB000054658BB4FF0A042D2F8803843F020039D
:104CC000C2F880384FF0A042D2F8343923F00703FD
:104CD000D4F838110B43C2F83439D4E9000100F498
:104CE00080520023134340F0C183D4E9000100F453
:104CF00080620023134340F02184D4E9000100F4D2
:104D000000620023134340F037840025284646B054
:104D100070BD04F18000FFF761FB05460028F5D166
:104D20004FF0A042D2F8943843F04003C2F89438D0
:104D300075E404F18000FFF751FB05460028E5D13A
:104D40004FF0A042D2F8943843F04003C2F89438B0
:104D50007CE404F14400FFF733FA05460028D5D17E
:104D60004FF0A042D2F8803843F02003C2F88038D8
:104D700083E404F18000FFF731FB05460028C5D12C
:104D80004FF0A042D2F8943843F02003C2F8943890
:104D900090E404F14400FFF713FA05460028B5D16A
:104DA0004FF0A042D2F8803843F02003C2F8803898
:104DB00080E404F14400FFF703FA05460028A5D17A
:104DC0004FF0A042D2F8803843F04003C2F8803858
:104DD00070E404F18000FFF701FB0546002895D13F
:104DE0004FF0A042D2F8943843F02003C2F8943830
:104DF0007DE404F14400FFF7E3F90546002885D17E
:104E00004FF0A042D2F8803843F02003C2F8803837
:104E10006DE404F14400FFF7D3F9054600287FF460
:104E200075AF4FF0A042D2F8803843F04003C2F88B
:104E300080385CE404F18000FFF7D0FA05460028D2
:104E40007FF464AF4FF0A042D2F8943843F02003CF
:104E5000C2F8943868E404F14400FFF7B1F905465C
:104E600000287FF453AF4FF0A042D2F8803843F0CF
:104E70002003C2F8803857E404F14400FFF7A0F99A
:104E8000054600287FF442AF4FF0A042D2F88038A8
:104E900043F04003C2F8803846E404F18000FFF795
:104EA0009DFA054600287FF431AF4FF0A042D2F8BA
:104EB000943843F02003C2F8943852E404F14400DB
:104EC000FFF77EF9054600287FF420AF4FF0A0429F
:104ED000D2F8803843F02003C2F8803841E404F16E
:104EE0004400FFF76DF9054600287FF40FAF4FF03F
:104EF000A042D2F8803843F04003C2F8803830E452
:104F000004F18000FFF76AFA054600287FF4FEAE40
:104F10004FF0A042D2F8943843F01003C2F894380E
:104F20003CE404F14400FFF74BF9054600287FF408
:104F3000EDAE4FF0A042D2F8803843F02003C2F823
:104F400080382BE404F14400FFF73AF905460028C5
:104F50007FF4DCAE4FF0A042D2F8803843F040033B
:104F6000C2F880381AE404F18000FFF737FA0546EA
:104F700000287FF4CBAE4FF0A042D2F8943843F033
:104F80001003C2F8943826E404F14400FFF718F93E
:104F9000054600287FF4BAAE4FF0A042D2F8803820
:104FA00043F02003C2F8803815E404F14400FFF711
:104FB00007F9054600287FF4A9AE4FF0A042D2F8C9
:104FC000803843F04003C2F8803804E404F18000E4
:104FD000FFF704FA054600287FF498AE4FF0A04290
:104FE000D2F8943843F02003C2F894380AE404F16C
:104FF0008000FFF7F3F9054600287FF487AE4FF0F5
:10500000A042D2F8943843F02003C2F8943813E455
:1050100004F14400FFF7D4F8054600287FF476AE8B
:105020004FF0A042D2F8803843F02003C2F8803815
:1050300002E404F18000FFF7D1F9054600287FF46F
:1050400065AE4FF0A042D2F8943843F02003C2F886
:10505000943808E404F18000FFF7C0F90546002801
:105060007FF454AE4FF0A042D2F8943843F02003BE
:10507000C2F894380EE404F18000FFF7AFF905465A
:1050800000287FF443AE4FF0A042D2F8943843F0AA
:105090002003C2F8943814E404F18000FFF79EF96D
:1050A000054600287FF432AE4FF0A042D2F8943883
:1050B00043F02003C2F894381AE404F14400FFF7E7
:1050C0007FF8054600287FF421AE4FF0A042D2F8C9
:1050D000803843F02003C2F8803823E404F18000D4
:1050E000FFF77CF9054600287FF410AE4FF0A04290
:1050F000D2F8943843F02003C2F8943812E404F153
:105100004400FFF75DF8054600287FF4FFAD4FF03F
:10511000A042D2F8803843F04003C2F880381BE444
:1051200004F18000FFF75AF9054600287FF4EEAD40
:105130004FF0A042D2F8943843F01003C2F89438EC
:105140000AE404F14400FFF73BF8054600287FF429
:10515000DDAD4FF0A042D2F8803843F04003C2F8F2
:10516000803813E404F18000FFF738F90546002881
:105170007FF4CCAD4FF0A042D2F8943843F0100346
:10518000C2F8943802E404F18000FFF727F90546DD
:1051900000287FF4BBAD4FF0A042D2F8943843F022
:1051A0001003C2F894380BE404F14400FFF708F848
:1051B000054600287FF4AAAD4FF0A042D2F880380F
:1051C00043F02003C2F88038FFF7FABB04F1440033
:1051D000FEF7F6FF054600287FF498AD4FF0A04299
:1051E000D2F8803843F04003C2F8803802E404F17A
:1051F0008000FFF7F3F8054600287FF487AD4FF0F5
:10520000A042D2F8943843F01003C2F89438FFF764
:10521000F1BB04F14400FEF7D3FF054600287FF4FC
:1052200075AD4FF0A042D2F8803843F04003C2F889
:105230008038FFF7F9BB04F18000FFF7CFF805468F
:1052400000287FF463AD4FF0A042D2F8943843F0C9
:105250001003C2F89438FFF7E7BB04F14400FEF7EF
:10526000AFFF054600287FF451AD4FF0A042D2F8C1
:10527000803843F02003C2F88038FFF7F2BB04F116
:105280008000FFF7ABF8054600287FF43FAD4FF0F4
:10529000A042D2F8943843F02003C2F89438FFF7C4
:1052A000E0BB04F18000FFF799F8054600287FF481
:1052B0002DAD4FF0A042D2F8943843F04003C2F82D
:1052C0009438FFF7CEBB04F18000FFF787F805465E
:1052D00000287FF41BAD4FF0A042D2F8943843F081
:1052E0001003C2F89438FFF7D6BB04F14400FEF770
:1052F00067FF054600287FF409AD4FF0A042D2F8C1
:10530000803843F02003C2F88038FFF7C4BB04F1B3
:105310008000FFF763F8054600287FF4F7AC4FF0F4
:10532000A042D2F8943843F04003C2F89438FFF713
:10533000DBBB04F18000FFF751F8054600287FF43D
:10534000E5AC4FF0A042D2F8943843F04003C2F8E5
:105350009438FFF7E0BB04F18000FFF73FF8054603
:1053600000287FF4D3AC4FF0A042D2F8943843F039
:105370004003C2F89438FFF7E5BB04F18000FFF763
:105380002DF8054600287FF4C1AC4FF0A042D2F8BA
:10539000943843F04003C2F89438FFF7EABB04F1B5
:1053A0008000FFF71BF8054600287FF4AFAC4FF0F4
:1053B000A042D2F8943843F01003C2F8943801E4C4
:1053C00004F18000FFF70AF8054600287FF49EAC40
:1053D0004FF0A042D2F8943843F04003C2F894381A
:1053E0000AE404F14400FEF7EBFE054600287FF4D2
:1053F0008DAC4FF0A042D2F8803843F02003C2F8C1
:105400008038FFF7F9BB04F18000FEF7E7FF05469F
:1054100000287FF47BAC4FF0A042D2F8943843F0E0
:105420001003C2F894380FE404F18000FEF7D6FFB1
:10543000054600287FF46AAC4FF0A042D2F89438B9
:1054400043F02003C2F8943815E404F18000FEF71D
:10545000C5FF054600287FF459AC4FF0A042D2F8B2
:10546000943843F01003C2F894382BE4524A13687E
:1054700043F480731360FCF77FFF064600254E4B14
:105480001B6813F4807F06D1FCF776FF801B64282D
:10549000F5D90325F3E7002D7FF438AC4FF0A04396
:1054A000D3F84031D4F84821534013F4403F08D199
:1054B0004FF0A042D2F8403143F48013C2F840319B
:1054C00013E44FF0A043D3F84061D3F8402142F0F9
:1054D0000042C3F84021D3F8402122F00042C3F833
:1054E0004021D3F8402122F0300206F030010A4377
:1054F000C3F840210423019306F00B030393002318
:105500000A9319932893379301A8FEF76FF905467C
:1055100000287FF4FBAB4FF0A042D2F8403123F4D7
:105520004033D4F848110B43C2F84031D2F840312F
:10553000224931400B43C2F84031B9E74FF0A04255
:10554000D2F8283823F00103D4F84C110B43C2F8E9
:105550002838FCF711FF05464FF0A043D3F8283850
:10556000002BFFF6CAABFCF707FF401BB0F57A7FB4
:10557000F2D90325FFF7CABB4FF0A042D2F82C386E
:1055800023F00103D4F850110B43C2F82C38FCF778
:10559000F3FE04464FF0A043D3F82C38002B08DB71
:1055A000FCF7EAFE001BB0F57A7FF3D90325FFF77D
:1055B000ADBB0025FFF7AABB00100050C0FDEC7F7B
:1055C000F8B50E4617460B4B9C690B4B9C420ED010
:1055D000A4F16C05314654F86C0CFBF7A5F808B142
:1055E0002468F2E73D60284600F0C6F9F8BD6FF088
:1055F0001200FBE7E82C0210002D0210F8B5174648
:10560000069E079D9D4206D006EB46018A0019467C
:10561000284601F00BF9002408E004EB4402930053
:10562000EA189168E85800F0E3F90134B4420ADA64
:10563000022FF2D104EB44029300EA189168E85873
:1056400000F0D5F9E9E73046F8BD70B51D46049E77
:10565000002408E004EB44029300EA189168E8583B
:1056600000F0C6F90134B442F4DB70BDF8B506466B
:105670000D460B4B9C680B4B9C420ED0A4F12407AB
:10568000314654F8240CFBF74FF8034618B905B11E
:105690002F601846F8BD2468EDE76FF00103F8E7C6
:1056A000E82C0210F02C021020B310B5044600685C
:1056B00018B3037823B30021FFF7D8FF18B304F120
:1056C0001C032362E36104F12402124BD968A16236
:1056D00003F108006062DA600A601B78062B15D9B6
:1056E000A0F108035B689BB122680B49072098472B
:1056F000002010BD6FF0150070476FF01500F8E73F
:105700006FF01500F5E76FF01000F2E70020F0E70A
:105710000020EEE7E82C021070980010D0B103468C
:105720000078D0B1E9B10878F0B102B330B583B0F8
:10573000184615460C4601A9FFF798FF034630B9F5
:1057400001988368B3B12A46214698470346184614
:1057500003B030BD6FF0150301E06FF0150318467C
:1057600070476FF01503FAE76FF01503F7E76FF076
:105770001503F4E76FF01203E9E700000368ABB12B
:105780001B78B3B18368022B16D810B40C4B43605E
:1057900000F16C010B4BDA69026703F11804C4666F
:1057A000D961116000205DF8044B70476FF015005F
:1057B00070476FF0150070476FF01500704700BF1D
:1057C00088000210E82C021038B505460C4C202247
:1057D0000021204601F035F82B6863602A792346C2
:1057E00003F8082BE360A36004F1100363612361F5
:1057F00004F11803E361A361284600F0D3F838BD33
:10580000E82C021070B586B004460A9E0C9D00205C
:1058100000900190029003900490059021606260D6
:10582000A360E6601F2E12D94FF0FF3323610B9B5C
:10583000636195B104F118060FCD0FC695E803001A
